:10007A00900966E493FEA3E493FFC007C0068E824C
:10008A008F83120011D006D007900943E493FEA390
:10009A00E493FFC007C0068E828F83120011D00638
:1000AA00D00790096AE493FEA3E493FFC007C00651
:1000BA008E828F83120011D006D0072285820B858B
:1000CA00830C85F00D1208EDFBA31208EDFCBB00B2
:1000DA0005BC0002800BBB2405BC0002801602018D
:1000EA0066850B82850C83850DF07424120885A31E
:1000FA00E4120885E53D700490000022750E007434
:10010A00F4250E4051E50E75F003A42508FAE50919
:10011A0035F0FBAF0A8A828B838FF01208EDFAA3BF
:10012A001208EDFBA31208EDFF74022AFCE43BFD62
:10013A008F068C828D838EF01208EDFC8A828B8367
:10014A008FF01208EDF50FA31208EDF5108C82124C
:10015A0001F6050E80A9753D000200EB850B82852C
:10016A000C83850DF0E4120885A31208859000031C
:10017A0022AD82AE83AFF01208EDFBA31208EDFCAC
:10018A00BB0005BC00028008BB3E4FBC004C80107F
:10019A008D828E838FF0743E120885A3E41208853F
:1001AA00900947E493FC7B00C3E53B9CE53C9B40FC
:1001BA0004E53A700490000022750F0A7510007564
:1001CA008200C007C006C0051201F6D005D006D0CD
:1001DA0007E4F53BF53CF53A80B68D828E838FF0C5
:1001EA00E4120885A312088590000322AF82BF009B
:1001FA0002800BBF0102805DBF0202802822E4F563
:10020A003BF53C90096893FEA3E493FFC007C00640
:10021A0012021F800BC006C007850F828510832239
:10022A00D006D00722AE3BAF3C0EBE00010F8E3B7C
:10023A008F3C900945E493FEA3E493FFC007C006F0
:10024A0012024F800BC006C007850F8285108322D9
:10025A00D006D00722AE3BAF3C0EBE00010F8E3B4C
:10026A008F3C90096CE493FEA3E493FFC007C00699
:10027A0012027F800BC006C007850F828510832279
:10028A00D006D00722C2A72220A702D2A72210A7EF
:10029A00012222AE82AF83BE0708BF0005B28602E2
:0E02AA000292BE0808BF0005B2870202982229
:040943008F029D0280
:1002B800AF82C2ACC2998F9910990280FBD2AC224E
:1002C800AD82AE83AFF07B007C00C3EB9403EC649B
:1002D8008094805031EB2DF8EC3EF98F02888289AA
:1002E800838AF01208EDF582C007C006C005C00475
:1002F800C0031202B8D003D004D005D006D0070B33
:10030800BB00C70C80C42275820D1202B875820A20
:100318000202B8AF82758230C0071202B8758278BF
:100328001202B8D0077E00756E108E6F8F828E8392
:10033800120909756E10756F00120909AE82AF8334
:10034800C3EE940AEF64809480500974302EFCE464
:100358003FFD800774372EFCE43FFD8C821202B803
:1003680002030F75217375227475236175247275E4
:100378002574752620752773752875752963752A60
:1003880065752B73752C73752D40752E63752F6FDE
:100398007530727531657532677533697534757E78
:1003A800007F00C3EE9425EF648094805015758219
:1003B8002DC007C0061202B8D006D0070EBE00E353
:1003C8000F80E012030F75822D1202B875822D126C
:1003D80002B875822D1202B87582201202B8758291
:1003E800201202B87E007F00C3EE9414EF6480945C
:1003F800805018EE2421F98782C007C0061202B87F
:10040800D006D0070EBE00E00F80DD7582201202F4
:10041800B87582201202B875822D1202B875822D25
:100428001202B875822D1202B812030F7E007F00E7
:10043800C3EE9425EF64809480501575822DC00713
:10044800C0061202B8D006D0070EBE00E30F80E047
:010458002281
:0400000002001332B5
:03000B000204C527
:0E006C00E4F539F53AF53BF53CF53D02000EA2
:03000E000204A841
:10045900AE82AF83EE4F601B7C467D00EC24FFFA31
:10046900ED34FFFB8A048B05EA4B70F01EBEFF01D9
:100479001F80E122AE894306018E89D2A9D28C75EB
:100489008C00758A00D2AF22AE894306208E897509
:100499008DFD758BFDD28EC2AC759850D2AF22906E
:1004A90001F412045912047D12049112007AE4F540
:1004B90035F536F537F53812036B80FEC020C0E0FC
:1004C900C0F0C082C083C007C006C005C004C00315
:1004D900C002C001C000C0D0E4F5D0F58CF58AF5A2
:1004E9003EF53FF540F541F542F543F544F545F54F
:1004F90046F547F548F549F54AF54BF54CF54DF5FF
:100509004EF54FF550F551F552F553F554F555F5AE
:1005190056F557F558F559F55AF55BF55CF55DF55E
:100529005EF55FF560F561F562F563F564F565F50E
:1005390066F567F568F569F56AF56BF56CF56D9023
:10054900003E75F04012084375083E750900750AAA
:100559004090003575F0401200C690003775F040A4
:1005690012017BD0D0D000D001D002D003D004D06A
:1005790005D006D007D083D082D0F0D0E0D0203289
:010947000AA5
:10058900900948E49324FF92A590094BE49324FF32
:1005990092A022E582FFB5390122EF75F006A42465
:1005A90048FE740935F0FF8E828F83E49324FF920D
:1005B900A58E828F83A3E49324FF92A38E828F83D7
:1005C900A3A3E49324FF92A48E828F83A3A3A3E41D
:1005D9009324FF92A08E828F83A3A3A3A3E49324E1
:1005E900FF92A18E828F83A3A3A3A3A3E49324FFE5
:1005F90092A22275820002059CAE82AF83C3740C5D
:100609009EE49F500122EE240A83F582EE24118391
:10061900F583E4738137434F5B81818181676F740F
:100629007C06060606060606060606060606B280C5
:1006390075820112059C753A0122B28175820212F6
:10064900059C753A0122B28275820312059C753A9E
:100659000122B28375820412059C753A0122B28087
:1006690075820102059CB281020589B282758202F6
:0906790002059CB28302058922EE
:100948000000000000000101000101000100010198
:100958000001000000010100010100000000FC0589
:02096800020685
:10068200C2A62220A602D2A62210A6012222AE8251
:10069200AF83BE0508BF0005B284020685BE060808
:0906A200BF0005B28502068B229F
:04096A00820690066B
:1006AB007F00BF09005010EF2411F98782C0071299
:1006BB00031BD0070F80EB02030FAE82AF837C00CE
:1006CB007D00C3EC9EED9F5008000CBC00F40D8028
:1006DB00F122AF827E017D007C00EF30E004D295E9
:1006EB008002C295EFC313FF900002C007C006C083
:1006FB0005C0041206C5C29790000A1206C5D004A5
:10070B00D005D006D007309403EE2DFD8E03EB2BD6
:10071B00FED297900003C007C006C005C0041206A6
:10072B00C5D004D005D006D0070CEC24F850ABD2C2
:10073B00958D822285826E85836F85F070753D0065
:10074B0075710074F425715003020831E57175F071
:10075B0008A4F57285F0732477FEE5733409FF8ED8
:10076B00828F83E493FCA3E493EC2411F987058E29
:10077B00828F83A3A3E493FEA3E493FF7C00EDB5E8
:10078B000606ECB50702800302082CE57175F00331
:10079B00A4256EFDE56F35F0FEAF708D828E838FD5
:1007AB00F01208EDF574A31208EDF575A31208ED20
:1007BB00F576E5722477F572E5733409F573857276
:1007CB0082857383A3A3A3A3E493FAA3E493FC8589
:1007DB0074828575838576F0EA120885A3EC12087E
:1007EB00858D828E838FF01208EDFDA31208EDFE2E
:1007FB00A31208EDFF74022DFDE43EFE8572828587
:10080B007383A3A3A3A3A3A3E493FBA3E493FC8D00
:10081B00828E838FF0EB120885A3EC120885753D51
:10082B0001057102074EE53D700DAE3BAF3C0EBEB0
:10083B0000010F8E3B8F3C22AD82AE83AFF0C29690
:10084B007C00BC09005028EC2411F9EC90096E9344
:10085B00F582C007C006C005C004C0011206DDE565
:10086B0082D001D004D005D006D007F70C80D3D2AC
:0A087B00968D828E838FF002073FF6
:10096E000142000000000000000300EF0001000043
:10097E00000300BF000200000003007F0003000020
:10098E00000300DF00040000000400EF000500017A
:10099E00000400BF000600010004007F00070002F3
:1009AE00000400DF00080002000400FB0009000044
:1009BE00000400FE000A0000000400F7000B000017
:0909CE00000400FD000C00000013
:06004200E478FFF6D8FD92
:100020007900E94400601B7A009009D7780175A037
:1000300000E493F2A308B8000205A0D9F4DAF2753F
:02004000A0FF1F
:1008850020F71130F6138883A88220F509F6A8838E
:100895007583002280FEF280F5F022E56E456F60DB
:1008A500467A01E56E25E0F56EE56F334012F56F8A
:1008B500E582956EE583956F40030A80E6C3E56F93
:1008C50013F56FE56E13F56EC3E582956EF5F0E5EC
:1008D50083956F4005F58385F082C3E56F13F56F4A
:0808E500E56E13F56EDAE12265
:100048007800E84400600A790175A000E4F309D853
:10005800FC7800E84400600C7900900001E4F0A30B
:04006800D8FCD9FAED
:0F001100E47375817612093FE582600302000EE9
:1008ED0020F71430F6148883A88220F507E6A88334
:1008FD0075830022E280F7E49322E022C2D5E583DE
:10090D0030E70DD2D5E4C39582F582E49583F58366
:10091D00E56F30E70BE4C3956EF56EE4956FF56FFB
:10092D001208A030D50BE4C39582F582E49583F5CA
:06093D00832275820022F6
:00000001FF
