:10007C00900982E493FEA3E493FFC007C0068E822E
:10008C008F83120011D006D00790095EE493FEA373
:10009C00E493FFC007C0068E828F83120011D00636
:1000AC00D007900986E493FEA3E493FFC007C00633
:1000BC008E828F83120011D006D0072285820B8589
:1000CC00830C85F00D120906FBA3120906FCBB007C
:1000DC0005BC0002800BBB2705BC00028016020188
:1000EC0068850B82850C83850DF0742712089EA3FE
:1000FC00E412089EE53B7004900000227C00BC0CCE
:10010C00005053EC75F003A42508F9E50935F0FA15
:10011C00AB0A89828A838BF0120906F9A3120906AD
:10012C00FAA3120906FB740229F8E43AFE8B07883D
:10013C00828E838FF0120906F889828A838BF012E3
:10014C000906F50EA3120906F50F8882C0041201E8
:10015C00FAD0040C80A8753B000200ED850B82855B
:10016C000C83850DF0E412089EA312089E900003E8
:10017C0022AD82AE83AFF0120906FBA3120906FC76
:10018C00BB0005BC00028008BB4051BC004E801077
:10019C008D828E838FF0744012089EA3E412089E09
:1001AC0090095CE493FB740193FCC3E5399BE53A3D
:1001BC009C4004E510700490000022750E0A750F27
:1001CC0000758200C007C006C0051201FAD005D028
:1001DC0006D007E4F539F53AF51080B48D828E839C
:1001EC008FF0E412089EA312089E90000322AF82A7
:1001FC00BF0002800BBF01028058BF020280282280
:10020C00E4F539F53A90098493FEA3E493FFC00713
:10021C00C006120223800BC006C007850E82850F14
:10022C008322D006D007220539E4B53902053A906D
:10023C000960E493FEA3E493FFC007C00612024ECC
:10024C00800BC006C007850E82850F8322D006D096
:10025C0007220539E4B53902053A900988E493FE82
:10026C00A3E493FFC007C006120279800BC006C03E
:0D027C0007850E82850F8322D006D0072251
:02095C000A008F
:10028900C2A72220A702D2A72210A7012222AE824A
:10029900AF83BE0708BF0005B28602028CBE0808FC
:0902A900BF0005B2870202922297
:04095E008902970271
:1002B200AF82C2ACC2998F9910990280FBD2AC2254
:1002C200AD82AE83AFF07B007C00C3EB9403EC64A1
:1002D2008094805031EB2DF8EC3EF98F02888289B0
:1002E200838AF0120906F582C007C006C005C00461
:1002F200C0031202B2D003D004D005D006D0070B3F
:10030200BB00C70C80C42275820D1202B275820A2C
:100312000202B2AF82758230C0071202B2758278D1
:100322001202B2D0077E00756C108E6D8F828E83A2
:10033200120922756C10756D00120922AE82AF830C
:10034200C3EE940AEF64809480500974302EFCE46A
:100352003FFD800774372EFCE43FFD8C821202B20F
:1003620002030975217375227475236175247275F0
:100372002574752620752773752875752963752A66
:1003820065752B73752C73752D40752E63752F6FE4
:100392007530727531657532677533697534757E7E
:1003A200007F00C3EE9425EF64809480501575821F
:1003B2002DC007C0061202B2D006D0070EBE00E35F
:1003C2000F80E012030975822D1202B275822D127E
:1003D20002B275822D1202B27582201202B27582A9
:1003E200201202B27E007F00C3EE9414EF64809468
:1003F200805018EE2421F98782C007C0061202B28B
:10040200D006D0070EBE00E00F80DD7582201202FA
:10041200B27582201202B275822D1202B275822D3D
:100422001202B275822D1202B21203097E007F00FF
:10043200C3EE9425EF64809480501575822DC00719
:10044200C0061202B2D006D0070EBE00E30F80E053
:010452002287
:0400000002001332B5
:03000B000204BF2D
:07006C00E4F539F53AF53B1C
:0300790002000E74
:03000E000204A247
:10045300AE82AF83EE4F601B7C467D00EC24FFFA37
:10046300ED34FFFB8A048B05EA4B70F01EBEFF01DF
:100473001F80E122AE894306018E89D2A9D28C75F1
:100483008C00758A00D2AF22AE894306208E89750F
:100493008DFD758BFDD28EC2AC759850D2AF229074
:1004A30001F412045312047712048B12007CE4F556
:1004B30035F536F537F53812036580FEC020C0E008
:1004C300C0F0C082C083C007C006C005C004C0031B
:1004D300C002C001C000C0D0E4F5D0F58CF58AF5A8
:1004E3003CF53DF53EF53FF540F541F542F543F565
:1004F30044F545F546F547F548F549F54AF54BF515
:100503004CF54DF54EF54FF550F551F552F553F5C4
:1005130054F555F556F557F558F559F55AF55BF574
:100523005CF55DF55EF55FF560F561F562F563F524
:1005330064F565F566F567F568F569F56AF56B9039
:10054300003C75F04012085C75083C750900750A9B
:100553004090003575F0401200C890003775F040A8
:1005630012017DD0D0D000D001D002D003D004D06E
:1005730005D006D007D083D082D0F0D0E0D020328F
:060073007510007511007C
:10058300900964E49324FF92A5900967E49324FF00
:1005930092A022E582FFB51125EF75F006A424642D
:1005A300FD740935F0FE8D828E83E49324FF92A5BA
:1005B3008D828E83A3A3A3E49324FF92A022EF75DD
:1005C300F006A42464FE740935F0FF8E828F83E461
:1005D3009324FF92A58E828F83A3E49324FF92A397
:1005E3008E828F83A3A3E49324FF92A48E828F83AE
:1005F300A3A3A3E49324FF92A08E828F83A3A3A338
:10060300A3E49324FF92A18E828F83A3A3A3A3A326
:10061300E49324FF92A222758200020596AE82AF74
:1006230083C3740C9EE49F500122EE240A83F58257
:10063300EE241183F583E4739F55616D799F9F9F2A
:100643009F858D929A060606060606060606060688
:100653000606B28075820112059675100122B281D9
:1006630075820212059675100122B28275820312F9
:10067300059675100122B2837582041205967510D2
:100683000122B280758201020596B281020583B20E
:0D06930082758202020596B2830205832261
:10096200F40100000000000001010001010001008B
:10097200010100010000000101000101000000006E
:040982001A0620062B
:1006A000C2A62220A602D2A62210A6012222AE8233
:1006B000AF83BE0508BF0005B2840206A3BE0608CC
:0906C000BF0005B2850206A92263
:04098600A006AE0613
:1006C9007F00BF09005010EF2412F98782C007127A
:1006D9000315D0070F80EB020309AE82AF837C00BC
:1006E9007D00C3EC9EED9F5008000CBC00F40D800A
:1006F900F122AF827E017D007C00EF30E004D295CB
:100709008002C295EFC313FF900002C007C006C064
:1007190005C0041206E3C29790000A1206E3D0044A
:10072900D005D006D007309403EE2DFD8E03EB2BB8
:10073900FED297900003C007C006C005C004120688
:10074900E3D004D005D006D0070CEC24F850ABD286
:10075900958D822285826C85836D85F06E753B004F
:10076900756F0074F4256F500302084FE56F75F03B
:1007790008A4F57085F0712493FEE5713409FF8EA4
:10078900828F83E493FCA3E493EC2412F987058E0A
:10079900828F83A3A3E493FEA3E493FF7C00EDB5CA
:1007A9000606ECB50702800302084AE56F75F003F7
:1007B900A4256CFDE56D35F0FEAF6E8D828E838FBD
:1007C900F0120906F572A3120906F573A3120906B8
:1007D900F574E5702493F570E5713409F571857048
:1007E90082857183A3A3A3A3E493FAA3E493FC856D
:1007F90072828573838574F0EA12089EA3EC12084D
:100809009E8D828E838FF0120906FDA3120906FEC2
:10081900A3120906FF74022DFDE43EFE8570828550
:100829007183A3A3A3A3A3A3E493FBA3E493FC8DE4
:10083900828E838FF0EB12089EA3EC12089E753B03
:1008490001056F02076CE53B70080539E4B539020B
:10085900053A22AD82AE83AFF0C2967C00BC090096
:100869005028EC2412F9EC90098A93F582C007C04C
:1008790006C005C004C0011206FBE582D001D00400
:10088900D005D006D007F70C80D3D2968D828E83FF
:050899008FF002075D75
:10098A000142000000000000000300EF0001000027
:10099A00000300BF000200000003007F0003000004
:1009AA00000300DF00040000000400EF000500015E
:1009BA00000400BF000600010004007F00070002D7
:1009CA00000400DF00080002000400FB0009000028
:1009DA00000400FE000A0000000400F7000B0000FB
:0909EA00000400FD000C000000F7
:06004200E478FFF6D8FD92
:100020007900E94400601B7A009009F3780175A01B
:1000300000E493F2A308B8000205A0D9F4DAF2753F
:02004000A0FF1F
:10089E0020F71130F6138883A88220F509F6A88375
:1008AE007583002280FEF280F5F022E56C456D60C6
:1008BE00467A01E56C25E0F56CE56D334012F56D79
:1008CE00E582956CE583956D40030A80E6C3E56D80
:1008DE0013F56DE56C13F56CC3E582956CF5F0E5DB
:1008EE0083956D4005F58385F082C3E56D13F56D37
:0808FE00E56C13F56CDAE12250
:100048007800E84400600A790175A000E4F309D853
:10005800FC7800E84400600C7900900001E4F0A30B
:04006800D8FCD9FAED
:0F001100E473758174120958E582600302000ED2
:1009060020F71430F6148883A88220F507E6A8831A
:1009160075830022E280F7E49322E022C2D5E583C4
:1009260030E70DD2D5E4C39582F582E49583F5834D
:10093600E56D30E70BE4C3956CF56CE4956DF56DEC
:100946001208B930D50BE4C39582F582E49583F598
:06095600832275820022DD
:00000001FF
