:10007A0090097BE493FEA3E493FFC007C0068E8237
:10008A008F83120011D006D007900956E493FEA37D
:10009A00E493FFC007C0068E828F83120011D00638
:1000AA00D00790097FE493FEA3E493FFC007C0063C
:1000BA008E828F83120011D006D0072285820B858B
:1000CA00830C85F00D120900FBA3120900FCBB008A
:1000DA0005BC0002800BBB2405BC0002801602018D
:1000EA0066850B82850C83850DF07424120898A30B
:1000FA00E4120898E53D700490000022750E007421
:10010A00F4250E4051E50E75F003A42508FAE50919
:10011A0035F0FBAF0A8A828B838FF0120900FAA3AB
:10012A00120900FBA3120900FF74022AFCE43BFD3A
:10013A008F068C828D838EF0120900FC8A828B8353
:10014A008FF0120900F50FA3120900F5108C821224
:10015A0001F6050E80A9753D000200EB850B82852C
:10016A000C83850DF0E4120898A3120898900003F6
:10017A0022AD82AE83AFF0120900FBA3120900FC84
:10018A00BB0005BC00028008BB3E4FBC004C80107F
:10019A008D828E838FF0743E120898A3E412089819
:1001AA0090095AE493FC7B00C3E53B9CE53C9B40E9
:1001BA0004E53A700490000022750F0A7510007564
:1001CA008200C007C006C0051201F6D005D006D0CD
:1001DA0007E4F53BF53CF53A80B68D828E838FF0C5
:1001EA00E4120898A312089890000322AF82BF0075
:1001FA0002800BBF0102805DBF0202802822E4F563
:10020A003BF53C90097D93FEA3E493FFC007C0062B
:10021A0012021F800BC006C007850F828510832239
:10022A00D006D00722AE3BAF3C0EBE00010F8E3B7C
:10023A008F3C900958E493FEA3E493FFC007C006DD
:10024A0012024F800BC006C007850F8285108322D9
:10025A00D006D00722AE3BAF3C0EBE00010F8E3B4C
:10026A008F3C900981E493FEA3E493FFC007C00684
:10027A0012027F800BC006C007850F828510832279
:10028A00D006D00722C2A72220A702D2A72210A7EF
:10029A00012222AE82AF83BE0708BF0005B28602E2
:0E02AA000292BE0808BF0005B2870202982229
:040956008F029D026D
:1002B800AF82C2ACC2998F9910990280FBD2AC224E
:1002C800AD82AE83AFF07B007C00C3EB9403EC649B
:1002D8008094805031EB2DF8EC3EF98F02888289AA
:1002E800838AF0120900F582C007C006C005C00461
:1002F800C0031202B8D003D004D005D006D0070B33
:10030800BB00C70C80C42275820D1202B875820A20
:100318000202B8AF82758230C0071202B8758278BF
:100328001202B8D0077E00756E108E6F8F828E8392
:1003380012091C756E10756F0012091CAE82AF830E
:10034800C3EE940AEF64809480500974302EFCE464
:100358003FFD800774372EFCE43FFD8C821202B803
:1003680002030F75217375227475236175247275E4
:100378002574752620752773752875752963752A60
:1003880065752B73752C73752D40752E63752F6FDE
:100398007530727531657532677533697534757E78
:1003A800007F00C3EE9425EF648094805015758219
:1003B8002DC007C0061202B8D006D0070EBE00E353
:1003C8000F80E012030F75822D1202B875822D126C
:1003D80002B875822D1202B87582201202B8758291
:1003E800201202B87E007F00C3EE9414EF6480945C
:1003F800805018EE2421F98782C007C0061202B87F
:10040800D006D0070EBE00E00F80DD7582201202F4
:10041800B87582201202B875822D1202B875822D25
:100428001202B875822D1202B812030F7E007F00E7
:10043800C3EE9425EF64809480501575822DC00713
:10044800C0061202B8D006D0070EBE00E30F80E047
:010458002281
:0400000002001332B5
:03000B000204CD1F
:0E006C00E4F539F53AF53BF53CF53D02000EA2
:03000E000204B039
:10045900AE82AF83EE4F601B7C467D00EC24FFFA31
:10046900ED34FFFB8A048B05EA4B70F01EBEFF01D9
:100479001F80E122AE894306018E89D2A9D28C90D0
:10048900095BE493F58C90095CE493F58AD2AF2279
:10049900AE894306208E89758DFD758BFDD28EC27E
:1004A900AC759850D2AF229001F412045912047D10
:1004B90012049912007AE4F535F536F537F5381254
:1004C900036B80FEC020C0E0C0F0C082C083C007BB
:1004D900C006C005C004C003C002C001C000C0D02E
:1004E90075D00090095BE493F58C90095CE493F571
:1004F9008AE4F53EF53FF540F541F542F543F5440B
:10050900F545F546F547F548F549F54AF54BF54CF6
:10051900F54DF54EF54FF550F551F552F553F554A6
:10052900F555F556F557F558F559F55AF55BF55C56
:10053900F55DF55EF55FF560F561F562F563F56406
:10054900F565F566F567F568F569F56AF56BF56CB6
:10055900F56D90003E75F04012085675083E750914
:1005690000750A4090003575F0401200C6900037BA
:1005790075F04012017BD0D0D000D001D002D00359
:10058900D004D005D006D007D083D082D0F0D0E0F7
:03059900D020323D
:03095A000A000090
:10059C0090095DE49324FF92A5900960E49324FFF5
:1005AC0092A022E582FFB5390122EF75F006A42452
:1005BC005DFE740935F0FF8E828F83E49324FF92E5
:1005CC00A58E828F83A3E49324FF92A38E828F83C4
:1005DC00A3A3E49324FF92A48E828F83A3A3A3E40A
:1005EC009324FF92A08E828F83A3A3A3A3E49324CE
:1005FC00FF92A18E828F83A3A3A3A3A3E49324FFD2
:10060C0092A2227582000205AFAE82AF83C3740C36
:10061C009EE49F500122EE240A83F582EE2411837E
:10062C00F583E473944A56626E949494947A828718
:10063C008F06060606060606060606060606B2809F
:10064C007582011205AF753A0122B28175820212D0
:10065C0005AF753A0122B2827582031205AF753A65
:10066C000122B2837582041205AF753A0122B28061
:10067C007582010205AFB28102059CB282758202BD
:09068C000205AFB28302059C22B5
:10095D000000000000000101000101000100010183
:10096D0000010000000101000101000000000F0660
:02097D0015065D
:10069500C2A62220A602D2A62210A6012222AE823E
:1006A500AF83BE0508BF0005B284020698BE0608E2
:0906B500BF0005B28502069E2279
:04097F009506A30630
:1006BE007F00BF09005010EF2411F98782C0071286
:1006CE00031BD0070F80EB02030FAE82AF837C00BB
:1006DE007D00C3EC9EED9F5008000CBC00F40D8015
:1006EE00F122AF827E017D007C00EF30E004D295D6
:1006FE008002C295EFC313FF900002C007C006C070
:10070E0005C0041206D8C29790000A1206D8D0046B
:10071E00D005D006D007309403EE2DFD8E03EB2BC3
:10072E00FED297900003C007C006C005C004120693
:10073E00D8D004D005D006D0070CEC24F850ABD29C
:10074E00958D822285826E85836F85F070753D0052
:10075E0075710074F425715003020844E57175F04B
:10076E0008A4F57285F073248CFEE5733409FF8EB0
:10077E00828F83E493FCA3E493EC2411F987058E16
:10078E00828F83A3A3E493FEA3E493FF7C00EDB5D5
:10079E000606ECB50702800302083FE57175F0030B
:1007AE00A4256EFDE56F35F0FEAF708D828E838FC2
:1007BE00F0120900F574A3120900F575A3120900D1
:1007CE00F576E572248CF572E5733409F57385724E
:1007DE0082857383A3A3A3A3E493FAA3E493FC8576
:1007EE0074828575838576F0EA120898A3EC120858
:1007FE00988D828E838FF0120900FDA3120900FEE0
:10080E00A3120900FF74022DFDE43EFE857282855F
:10081E007383A3A3A3A3A3A3E493FBA3E493FC8DED
:10082E00828E838FF0EB120898A3EC120898753D18
:10083E00010571020761E53D700DAE3BAF3C0EBE8A
:10084E0000010F8E3B8F3C22AD82AE83AFF0C2967D
:10085E007C00BC09005028EC2411F9EC900983931C
:10086E00F582C007C006C005C004C0011206F0E53F
:10087E0082D001D004D005D006D007F70C80D3D299
:0A088E00968D828E838FF0020752D0
:100983000142000000000000000300EF000100002E
:10099300000300BF000200000003007F000300000B
:1009A300000300DF00040000000400EF0005000165
:1009B300000400BF000600010004007F00070002DE
:1009C300000400DF00080002000400FB000900002F
:1009D300000400FE000A0000000400F7000B000002
:0909E300000400FD000C000000FE
:06004200E478FFF6D8FD92
:100020007900E94400601B7A009009EC780175A022
:1000300000E493F2A308B8000205A0D9F4DAF2753F
:02004000A0FF1F
:1008980020F71130F6138883A88220F509F6A8837B
:1008A8007583002280FEF280F5F022E56E456F60C8
:1008B800467A01E56E25E0F56EE56F334012F56F77
:1008C800E582956EE583956F40030A80E6C3E56F80
:1008D80013F56FE56E13F56EC3E582956EF5F0E5D9
:1008E80083956F4005F58385F082C3E56F13F56F37
:0808F800E56E13F56EDAE12252
:100048007800E84400600A790175A000E4F309D853
:10005800FC7800E84400600C7900900001E4F0A30B
:04006800D8FCD9FAED
:0F001100E473758176120952E582600302000ED6
:1009000020F71430F6148883A88220F507E6A88320
:1009100075830022E280F7E49322E022C2D5E583CA
:1009200030E70DD2D5E4C39582F582E49583F58353
:10093000E56F30E70BE4C3956EF56EE4956FF56FE8
:100940001208B330D50BE4C39582F582E49583F5A4
:06095000832275820022E3
:00000001FF
