:10007C00900992E493FEA3E493FFC007C0068E821E
:10008C008F83120011D006D00790096CE493FEA365
:10009C00E493FFC007C0068E828F83120011D00636
:1000AC00D007900996E493FEA3E493FFC007C00623
:1000BC008E828F83120011D006D0072285820B8589
:1000CC00830C85F00D120916FBA3120916FCBB005C
:1000DC0005BC0002800BBB2405BC0002801602018B
:1000EC0068850B82850C83850DF074241208AEA3F1
:1000FC00E41208AEE53D700490000022750E007409
:10010C00F4250E4051E50E75F003A42508FAE50917
:10011C0035F0FBAF0A8A828B838FF0120916FAA393
:10012C00120916FBA3120916FF74022AFCE43BFD0C
:10013C008F068C828D838EF0120916FC8A828B833B
:10014C008FF0120916F50FA3120916F5108C8212F6
:10015C0001F8050E80A9753D000200ED850B828526
:10016C000C83850DF0E41208AEA31208AE900003C8
:10017C0022AD82AE83AFF0120916FBA3120916FC56
:10018C00BB0005BC00028008BB3E4FBC004C80107D
:10019C008D828E838FF0743E1208AEA3E41208AEEB
:1001AC00900970E493FC7B00C3E53B9CE53C9B40D1
:1001BC0004E53A700490000022750F0A7510007562
:1001CC008200C007C006C0051201F8D005D006D0C9
:1001DC0007E4F53BF53CF53A80B68D828E838FF0C3
:1001EC00E41208AEA31208AE90000322AF82BF0047
:1001FC0002800BBF0102805DBF0202802822E4F561
:10020C003BF53C90099493FEA3E493FFC007C00612
:10021C00120221800BC006C007850F828510832235
:10022C00D006D00722AE3BAF3C0EBE00010F8E3B7A
:10023C008F3C90096EE493FEA3E493FFC007C006C5
:10024C00120251800BC006C007850F8285108322D5
:10025C00D006D00722AE3BAF3C0EBE00010F8E3B4A
:10026C008F3C900998E493FEA3E493FFC007C0066B
:10027C00120281800BC006C007850F828510832275
:10028C00D006D00722C2A72220A702D2A72210A7ED
:10029C00012222AE82AF83BE0708BF0005B28602E0
:0E02AC000294BE0808BF0005B28702029A2223
:04096C0091029F0253
:1002BA00AF82C2ACC2998F9910990280FBD2AC224C
:1002CA00AD82AE83AFF07B007C00C3EB9403EC6499
:1002DA008094805031EB2DF8EC3EF98F02888289A8
:1002EA00838AF0120916F582C007C006C005C00449
:1002FA00C0031202BAD003D004D005D006D0070B2F
:10030A00BB00C70C80C42275820D1202BA75820A1C
:10031A000202BAAF82758230C0071202BA758278B9
:10032A001202BAD0077E00756F108E708F828E838C
:10033A00120932756F10757000120932AE82AF83DE
:10034A00C3EE940AEF64809480500974302EFCE462
:10035A003FFD800774372EFCE43FFD8C821202BAFF
:10036A0002031175217375227475236175247275E0
:10037A002574752620752773752875752963752A5E
:10038A0065752B73752C73752D40752E63752F6FDC
:10039A007530727531657532677533697534757E76
:1003AA00007F00C3EE9425EF648094805015758217
:1003BA002DC007C0061202BAD006D0070EBE00E34F
:1003CA000F80E012031175822D1202BA75822D1266
:1003DA0002BA75822D1202BA7582201202BA758289
:1003EA00201202BA7E007F00C3EE9414EF64809458
:1003FA00805018EE2421F98782C007C0061202BA7B
:10040A00D006D0070EBE00E00F80DD7582201202F2
:10041A00BA7582201202BA75822D1202BA75822D1D
:10042A001202BA75822D1202BA1203117E007F00DF
:10043A00C3EE9425EF64809480501575822DC00711
:10044A00C0061202BAD006D0070EBE00E30F80E043
:01045A00227F
:0400000002001332B5
:03000B000204CF1D
:10006C00E4F539F53AF53BF53CF53DF53E02000E6D
:03000E000204B237
:10045B00AE82AF83EE4F601B7C467D00EC24FFFA2F
:10046B00ED34FFFB8A048B05EA4B70F01EBEFF01D7
:10047B001F80E122AE894306018E89D2A9D28C90CE
:10048B000971E493F58C900972E493F58AD2AF224B
:10049B00AE894306208E89758DFD758BFDD28EC27C
:1004AB00AC759850D2AF229001F412045B12047F0A
:1004BB0012049B12007CE4F535F536F537F538124E
:1004CB00036D80FEC020C0E0C0F0C082C083C007B7
:1004DB00C006C005C004C003C002C001C000C0D02C
:1004EB0075D000900973E493FFC3E53E9F5005055B
:1004FB003E020595900971E493F58C900972E49393
:10050B00F58AE4F53FF540F541F542F543F544F541
:10051B0045F546F547F548F549F54AF54BF54CF5E4
:10052B004DF54EF54FF550F551F552F553F554F594
:10053B0055F556F557F558F559F55AF55BF55CF544
:10054B005DF55EF55FF560F561F562F563F564F5F4
:10055B0065F566F567F568F569F56AF56BF56CF5A4
:10056B006DF56E90003F75F04012086C75083F7585
:10057B000900750A4090003575F0401200C89000D4
:10058B003775F04012017D753E00D0D0D000D00100
:10059B00D002D003D004D005D006D007D083D082B0
:0705AB00D0F0D0E0D02032B7
:04097000010000057D
:1005B200900974E49324FF92A5900977E49324FFB1
:1005C20092A022E582FFB5390122EF75F006A4243C
:1005D20074FE740935F0FF8E828F83E49324FF92B8
:1005E200A58E828F83A3E49324FF92A38E828F83AE
:1005F200A3A3E49324FF92A48E828F83A3A3A3E4F4
:100602009324FF92A08E828F83A3A3A3A3E49324B7
:10061200FF92A18E828F83A3A3A3A3A3E49324FFBB
:1006220092A2227582000205C5AE82AF83C3740C0A
:100632009EE49F500122EE240A83F582EE24118368
:10064200F583E473AA606C7884AAAAAAAA90989DFA
:10065200A506060606060606060606060606B28073
:100662007582011205C5753A0122B28175820212A4
:1006720005C5753A0122B2827582031205C5753A23
:100682000122B2837582041205C5753A0122B28035
:100692007582010205C5B2810205B2B2827582027B
:0906A2000205C5B2830205B22273
:10097400000000000000010100010100010001016C
:100984000001000000010100010100000000250633
:020994002B0630
:1006AB00C2A62220A602D2A62210A6012222AE8228
:1006BB00AF83BE0508BF0005B2840206AEBE0608B6
:0906CB00BF0005B2850206B4224D
:04099600AB06B906ED
:1006D4007F00BF09005010EF2411F98782C0071270
:1006E400031DD0070F80EB020311AE82AF837C00A1
:1006F4007D00C3EC9EED9F5008000CBC00F40D80FF
:10070400F122AF827E017D007C00EF30E004D295BF
:100714008002C295EFC313FF900002C007C006C059
:1007240005C0041206EEC29790000A1206EED00429
:10073400D005D006D007309403EE2DFD8E03EB2BAD
:10074400FED297900003C007C006C005C00412067D
:10075400EED004D005D006D0070CEC24F850ABD270
:10076400958D822285826F85837085F071753D0039
:1007740075720074F42572500302085AE57275F01C
:1007840008A4F57385F07424A3FEE5743409FF8E80
:10079400828F83E493FCA3E493EC2411F987058E00
:1007A400828F83A3A3E493FEA3E493FF7C00EDB5BF
:1007B4000606ECB507028003020855E57275F003DE
:1007C400A4256FFDE57035F0FEAF718D828E838FA9
:1007D400F0120916F575A3120916F576A312091677
:1007E400F577E57324A3F573E5743409F57485731B
:1007F40082857483A3A3A3A3E493FAA3E493FC855F
:1008040075828576838577F0EA1208AEA3EC120828
:10081400AE8D828E838FF0120916FDA3120916FE87
:10082400A3120916FF74022DFDE43EFE8573828532
:100834007483A3A3A3A3A3A3E493FBA3E493FC8DD6
:10084400828E838FF0EB1208AEA3EC1208AE753DD6
:10085400010572020777E53D700DAE3BAF3C0EBE5D
:1008640000010F8E3B8F3C22AD82AE83AFF0C29667
:100874007C00BC09005028EC2411F9EC90099A93EF
:10088400F582C007C006C005C004C001120706E512
:1008940082D001D004D005D006D007F70C80D3D283
:0A08A400968D828E838FF0020768A4
:10099A000142000000000000000300EF0001000017
:1009AA00000300BF000200000003007F00030000F4
:1009BA00000300DF00040000000400EF000500014E
:1009CA00000400BF000600010004007F00070002C7
:1009DA00000400DF00080002000400FB0009000018
:1009EA00000400FE000A0000000400F7000B0000EB
:0909FA00000400FD000C000000E7
:06004200E478FFF6D8FD92
:100020007900E94400601B7A00900A03780175A00A
:1000300000E493F2A308B8000205A0D9F4DAF2753F
:02004000A0FF1F
:1008AE0020F71130F6138883A88220F509F6A88365
:1008BE007583002280FEF280F5F022E56F457060B0
:1008CE00467A01E56F25E0F56FE570334012F5705D
:1008DE00E582956FE583957040030A80E6C3E57067
:1008EE0013F570E56F13F56FC3E582956FF5F0E5BF
:1008FE008395704005F58385F082C3E57013F5701E
:08090E00E56F13F56FDAE12239
:100048007800E84400600A790175A000E4F309D853
:10005800FC7800E84400600C7900900001E4F0A30B
:04006800D8FCD9FAED
:0F001100E473758177120968E582600302000EBF
:1009160020F71430F6148883A88220F507E6A8830A
:1009260075830022E280F7E49322E022C2D5E583B4
:1009360030E70DD2D5E4C39582F582E49583F5833D
:10094600E57030E70BE4C3956FF56FE49570F570CD
:100956001208C930D50BE4C39582F582E49583F578
:06096600832275820022CD
:00000001FF
