:100075009010A9E493FEA3E493FFC007C0068E8207
:100085008F83120011D006D007901084E493FEA34D
:10009500E493FFC007C0068E828F83120011D0063D
:1000A500D0079010ADE493FEA3E493FFC007C0060C
:1000B5008E828F83120011D006D00790112CE49305
:1000C500FEA3E493FFC007C0068E828F8312001142
:1000D500D006D00722AE82AF83EE4F605A7F00BFB5
:1000E5000C00506BEF75F003A42508FCE50935F00D
:1000F500FDAE0A8C828D838EF0120F9FFCA3120F2A
:100105009FFDA3120F9FFE74022CF9E43DFA8E03A6
:1001150089828A838BF0120F9FF98C828D838EF0F2
:10012500120F9FF50BA3120F9FF50C8982C00712C2
:100135000155D0070F80A8750B0A750C0075820054
:10014500120155750B0A750C0075820302015522C3
:10015500E582FF24FC500122EF2F90016373800696
:10016500804A802580699010ABE493FEA3E493FF59
:10017500C007C00612017E800BC006C007850B8232
:10018500850C8322D006D00722901086E493FEA327
:10019500E493FFC007C0061201A1800BC006C0078B
:1001A500850B82850C8322D006D007229010AFE400
:1001B50093FEA3E493FFC007C0061201C4800BC0E1
:1001C50006C007850B82850C8322D006D0072290B6
:1001D500112EE493FEA3E493FFC007C0061201E7C6
:1001E500800BC006C007850B82850C8322D006D004
:1001F5000722C292C29322209202D2922210920129
:100205002222AE82AF83BE0B08BF0005B286020173
:0D021500FCBE0C08BF0005B28702020222E9
:04108400F701070267
:10022200AF82C2ACC2998F9910990280FBD2AC22E4
:10023200AD82AE83AFF07B007C00C3EB9403EC6431
:100242008094805031EB2DF8EC3EF98F0288828940
:10025200838AF0120F9FF582C007C006C005C00452
:10026200C003120222D003D004D005D006D0070B5F
:10027200BB00C70C80C42275820D12022275820A4D
:10028200020222AF82758230C00712022275827882
:10029200120222D0077E00756E108E6F8F828E83BF
:1002A200120FBB756E10756F00120FBBAE82AF835B
:1002B200C3EE940AEF64809480500974302EFCE4FB
:1002C2003FFD800774372EFCE43FFD8C8212022230
:1002D2000202797521737522747523617524727512
:1002E2002574752620752773752875752963752AF7
:1002F20065752B73752C73752D40752E63752F6F75
:100302007530727531657532677533697534757E0E
:10031200007F00C3EE9425EF6480948050157582AF
:100322002DC007C006120222D006D0070EBE00E37F
:100332000F80E012027975822D12022275822D122F
:10034200022275822D1202227582201202227582E9
:10035200201202227E007F00C3EE9414EF64809488
:10036200805018EE2421F98782C007C006120222AB
:10037200D006D0070EBE00E00F80DD75822012028B
:100382002275822012022275822D12022275822D7E
:1003920012022275822D1202221202797E007F0041
:1003A200C3EE9425EF64809480501575822DC007AA
:1003B200C006120222D006D0070EBE00E30F80E074
:0103C2002218
:0400000002001332B5
:03000B0002042EBE
:03006C00753500E7
:0300720002000E7B
:03000E0002041ACF
:1003C300AE82AF83EE4F601B7C467D00EC24FFFAC8
:1003D300ED34FFFB8A048B05EA4B70F01EBEFF0170
:1003E3001F80E122AE894306018E89D2A9D28C9067
:1003F3001088E493F58C901089E493F58AD2AF22A8
:10040300AE894306208E89758DFD758BFDD28EC214
:10041300AC759850D2AF229001F41203C31203E7D4
:100423001204031200751202D580FEC020C0E0C082
:10043300F0C082C083C007C006C005C004C003C0AB
:1004430002C001C000C0D075D00090108AE493FFB1
:10045300C3E5359F500505350204F7901088E493F2
:10046300F58C901089E493F58AE4F536F537F53881
:10047300F539F53AF53BF53CF53DF53EF53FF540ED
:10048300F541F542F543F544F545F546F547F5489D
:10049300F549F54AF54BF54CF54DF54EF54FF5504D
:1004A300F551F552F553F554F555F556F557F558FD
:1004B300F559F55AF55BF55CF55DF55EF55FF560AD
:1004C300F561F562F563F564F565F566F56775192C
:1004D30036F51A751B4090006675F040120A627576
:1004E3000836750900750A408566828567831200A0
:1004F300DA753500D0D0D000D001D002D003D004BB
:10050300D005D006D007D083D082D0F0D0E0D02061
:0105130032B5
:0310880000000164
:03006F00750D000C
:1005140090108BE49324FF92A590108EE49324FF13
:1005240092A0750D0022E582FFB50D0122EF75F052
:1005340006A4248BFE741035F0FF8E828F83E4931F
:1005440024FF92A58E828F83A3E49324FF92A38E2B
:10055400828F83A3A3E49324FF92A48E828F83A328
:10056400A3A3E49324FF92A08E828F83A3A3A3A3C7
:10057400E49324FF92A18E828F83A3A3A3A3A3E475
:100584009324FF92A22275820002052AAE82AF83D1
:10059400BE0105BF00028020BE0205BF000280200C
:1005A400BE0305BF00028020BE0405BF00028020F8
:1005B400BE0A28BF00258020B28075820102052A68
:1005C400B28175820202052AB28275820302052A6B
:0C05D400B28375820402052A020514227D
:10108B00000000000000010100010100010001014E
:10109B0000010000000101000101000000008A05B1
:0210AB009005AE
:1005E000C2A62220A602D2A62210A6012222AE82F4
:1005F000AF83BE0508BF0005B2840205E3BE06084E
:09060000BF0005B2850205E922E4
:0410AD00E005EE0567
:10060900AE82AF83EE4F601B7C947D00EC24FFFA31
:10061900ED34FFFB8A048B05EA4B70F01EBEFF0127
:100629001F80E122000000000022D29012062DD284
:100639009102062DD29012062DD29112062DC2904A
:1006490012062DC29102062DC29012062DD29112C8
:10065900062DD29002062DD29112062D7F00D2903E
:10066900309008BFFF0050030F80F3C29102062D9E
:10067900AF827E008F05ED2DFFC291C007C0061223
:10068900062DA2D7929012062DD29112062DD006D0
:10069900D0070EBE080040DCC29112062DD290028E
:1006A900062D7F00C291C00712062DD29012062D89
:1006B900D0077E00BE08005025C007C00612062DCF
:1006C900D29112062DD006D0073090047D01800208
:1006D9007D008F04EC2CFC4DFFC2910E80D6C00723
:1006E90012062DD0078F8222AF82C00712063D75F0
:1006F9008280120679120660D0078F82120679125B
:100709000660850E82120679120660020651AF82D2
:10071900C00712063D758280120679120660D0075D
:100729008F8212067912066012063D7582811206C1
:10073900791206601206ABAF82C007120651D007C4
:100749008F8222750E007582000206F1AC82AD839C
:10075900AEF0FFC004C005C006C00790851F75F044
:100769006B743F120C98AC82AD83AEF0FFE5812427
:10077900FCF581C004C005C006C00790BC2075F017
:10078900BE7445120ED1AC82AD83AEF0FFE5812473
:10079900FCF581E4C0E0C0E07480C0E0743FC0E0D3
:1007A9008C828D838EF0EF120C8DAC82AD83AEF00E
:1007B900FFE58124FCF581E4C0E0C0E0C0E0743FBE
:1007C900C0E08C828D838EF0EF120E04AC82AD8373
:1007D900AEF0FFE58124FCF5818C828D838EF0EFEC
:1007E900120E5DAE82AF83758200C007C006120784
:1007F90017AD827C00747F5DFA4302108A0E758200
:1008090000C005C0041206F1D004D005D006D007F7
:100819008E0E7582FEC005C0041206F1D004D00503
:100829008D0E758200C005C0041206F190000212F7
:100839000609D004D0054305A18D0E758200020674
:10084900F112063312074C90000075F04874420209
:100859000755AF82850F82C007120F94AB82AC8314
:10086900ADF0FEC003C004C005C00690A2B475F087
:10087900117440120C98AB82AC83ADF0FEE5812473
:10088900FCF58174CDC0E014C0E0C0E07442C0E062
:100899008B828C838DF0EE120E04AB82AC83ADF0AB
:1008A900FEE58124FCF5818B828C838DF0EE120E9E
:1008B9005DAD82AE83D007EF2F25E0FF2406F582D8
:1008C900750E00C007C006C0051206F1D005D00696
:1008D900D00774072FF582750E00C007C006C00542
:1008E9001206F1D005D006D00774082FF5828D0EB7
:1008F900C007C006C0051206F1D005D006D007749E
:10090900092FF5828E0E0206F17F00BF09005010F3
:10091900EF2410F98782C007120285D0070F80EBF8
:10092900020279AF827E017D007C00EF30E004D2C3
:10093900958002C295EFC313FF0000C2973094035C
:10094900EE2DFD8E03EB2BFED2970CEC24F850DB39
:10095900D2958D822285827185837285F073E41226
:100969000D9CA3120D9CF57474F42574500122E5B5
:100979007475F008A4F57585F07624BAFEE5763429
:1009890010FF8E828F83E493FCA3E493EC2410F987
:1009990087058E828F83A3A3E493FEA3E493FF7C50
:1009A90000EDB50606ECB507028003020A5DE574A1
:1009B90075F003A4256EFDE56F35F0FEAF708D82ED
:1009C9008E838FF0120F9FF577A3120F9FF578A3EF
:1009D900120F9FF579E57524BAF575E5763410F5AA
:1009E90076857582857683A3A3A3A3E493FAA3E40A
:1009F90093FC8577828578838579F0EA120D9CA32B
:100A0900EC120D9C8D828E838FF0120F9FFDA31225
:100A19000F9FFEA3120F9FFF74022DFDE43EFE857A
:100A29007582857683A3A3A3A3A3A3E493FBA3E47D
:100A390093FC8D828E838FF0EB120D9CA3EC120D2B
:100A49009C8571828572838573F07401120D9CA354
:100A5900E4120D9C0574020971AD82AE83AFF0C238
:100A6900967C00BC09005028EC2410F9EC9010B1D8
:100A790093F582C007C006C005C004C00112092C45
:100A8900E582D001D004D005D006D007F70C80D379
:100A9900D29685196E851A6F851B708D828E838F0C
:040AA900F002095EF0
:1010B1000142000000000000000300EF00010000F9
:1010C100000300BF000200000003007F00030000D6
:1010D100000300DF00040000000400EF000500032E
:1010E100000400BF000600030004007F00070003A6
:1010F100000400DF00080003000400FB00090003F6
:10110100000400FE000A0000000400F7000B0002CA
:09111100000400FD000C000200C6
:100AAD0012084A90111CE493F568740193F569904E
:100ABD001122E493F56A740193F56B756C01756DF4
:100ACD000022AE82AF83E56C456D700122EE256884
:100ADD00F568EF3569F56990111AE493FE74019389
:100AED00FFC3E5689EE56964808FF063F08095F043
:100AFD0050028004AE68AF698E688F6990111EE454
:100B0D0093FE740193FFC3EE9568EF64808569F0E1
:100B1D0063F08095F050028004AE68AF698E688FE7
:100B2D0069901128E493FE7401938E8285680F12EB
:100B3D00085BE4F56CF56D22AE82AF83E56C456D17
:100B4D00700122EE256AF56AEF356BF56B90112079
:100B5D00E493FE740193FFC3E56A9EE56B64808F99
:100B6D00F063F08095F050028004AE6AAF6B8E6A30
:100B7D008F6B901124E493FE740193FFC3EE956A7D
:100B8D00EF6480856BF063F08095F050028004AEC9
:100B9D006AAF6B8E6A8F6B90112AE493FE7401938A
:100BAD008E82856A0F12085BE4F56CF56D22E56C9B
:100BBD00456D700122901128E493FE7401939011FC
:100BCD001CE493FD7401938D0F8E8212085B9011BE
:100BDD002AE493FE740193901122E493FD74019322
:100BED008D0F8E8212085BE4F56CF56D22AE82AF2F
:100BFD0083C3740A9EE49F500122EE240A83F5827A
:100C0D00EE240F83F583E4738C8C8C8C8C2B3E56E9
:100C1D006981860C0C0C0C0C0C0C0C0C0C0CB2849D
:100C2D00901126E493FE740193FF8E828F83020B45
:100C3D0045B285901126E493FE740193FFC3E49EA3
:100C4D00F582E49FF583020B45B286901126E4935D
:100C5D00FE740193FF8E828F83020ACFB2879011AB
:100C6D0026E493FE740193FFC3E49EF582E49FF5A1
:100C7D0083020ACFB284020BBB756C01756D002225
:10111A0000005F00B00000005800B0001E000C0084
:06112A000D00AD0AFA0BF6
:100C8D00A8811818C6B2E7C6020E04120D3BBC00AF
:100C9D0003020E89EF60FA30D502B2D1E583B4FFBD
:100CAD0003020E9FE582B4FF03020E9F25834007CA
:100CBD002482400B020E892483145003020E9FF5EB
:100CCD0082EA8DF0A4A8F0EA8EF0A428F8E435F0BD
:100CDD00F9EB8DF0A428E935F0F9E433CA8FF0A4CF
:100CED0029F9EA35F0FAEBF88EF0A429F9EA35F096
:100CFD00FAE433FBEC8DF0A429F9EA35F0FAE43B84
:100D0D00FBE88FF0A42AFAEB35F0FBE433CCFD8E33
:100D1D00F0A42AFAEB35F0FBE43CFCED8FF0A42BAC
:100D2D00FBEC35F0FC20E703120D69020E68AA8278
:100D3D00AB83A2F73392D1F5826002D2F7ACF0E526
:100D4D008124F9F8E6FD08E6FE0886F008E6A2F72C
:0C0D5D003392D5F5836002D2F7AFF0228C
:06004200E478FFF6D8FD92
:100D69007804EC7011E58224F8500AF582E4C9CAC6
:100D7900CBFCD8EF22EC7820058220E713D582013D
:100D890022C3E933F9EA33FAEB33FBEC33FCD8EA53
:030D99001582229E
:100020007900E94400601B7A00901130780175A0D6
:1000300000E493F2A308B8000205A0D9F4DAF2753F
:02004000A0FF1F
:100D9C0020F71130F6138883A88220F509F6A88372
:100DAC007583002280FEF280F5F022E56E456F60BF
:100DBC00467A01E56E25E0F56EE56F334012F56F6E
:100DCC00E582956EE583956F40030A80E6C3E56F77
:100DDC0013F56FE56E13F56EC3E582956EF5F0E5D0
:100DEC0083956F4005F58385F082C3E56F13F56F2E
:100DFC00E56E13F56EDAE122120D3B7900E583B551
:100E0C008202800D5003120EB7E583C39582121037
:100E1C0004E5D0C465D020E117EA2DFAEB3EFBECDB
:100E2C003FFC50097401121004EC4480FC020E6863
:100E3C00C3EA9DFAEB9EFBEC9FFC500FC3E499F9BF
:100E4C00E49AFAE49BFBE49CFCB2D1120D69020E0D
:010E5C00682D
:100048007800E84400600A790175A000E4F309D853
:10005800FC7800E84400600C7900900001E4F0A30B
:04006800D8FCD9FAED
:0B0E5D007F8E12104DF58385F082227D
:02001100E47396
:100E6800B98003EA13B34010EA2401FAE43BFBE437
:100E78003CFC50047C800582BC000EBB000BBA0011
:100E880008E4F5F0F583F58222A2D1E582138CF00F
:100E980092F78B838A8222E4F583F58275F080F4D9
:100EA800A2D11322E4F583F58275F0C0747F22E5A0
:100EB80082C583F582A2D133A2D592D11392D5EC03
:100EC800CFFCEBCEFBEACDFA22120D3B30D502B2B5
:100ED800D1BF0009BC0003020EAC020E9FBC000388
:100EE800020E89E583B4FF0BE582B4FF03020EAC62
:100EF800020E89E582B4FF03020E9FC39583500753
:100F0800247F400B020E892480145003020E9FF5A3
:100F180082C3ED9AEE9BEF9C40111582C3EA33F928
:100F2800EB33FAEC33FBE433FC8005E4CCCBCAF9B1
:100F3800C08275F019C3E99DEA9EEB9FEC9400D539
:100F4800F002802D400EE99DF9EA9EFAEB9FFBEC3A
:100F58009400FCC3B3E833F8E58233F582E58333C4
:100F6800F583C3E933F9EA33FAEB33FBEC33FC805E
:100F7800C4B3E4F938FAE43582FBE43583FCD08263
:0C0F8800500405827C80120D69020E806E
:0D001300758179121047E582600302000E2E
:100F9400E4AC82FBFAF97486020FFA20F71430F6F7
:100FA400148883A88220F507E6A88375830022E2CB
:100FB40080F7E49322E022C2D5E58330E70DD2D551
:100FC400E4C39582F582E49583F583E56F30E70BFE
:100FD400E4C3956EF56EE4956FF56F120DB730D5D9
:100FE4000BE4C39582F582E49583F58322FCABF090
:100FF400AA83A982749EC2D1F582120D69020E6879
:101004006040F82582500274FFF582E824F8501EEF
:10101400CCCBCAF9E4CC24F85014CBCAF9E4CB24E1
:10102400F8500BCAF9E4CA24F850037900222408C2
:101034006010F8C3EC13FCEB13FBEA13FAE913F9A1
:10104400D8F122758200227F9E12107230D10302E1
:101054000E89C3EF9582500974FFF5F0F583F5828C
:1010640022790012100489828A838BF0EC22AA82EE
:10107400AB83A2F73392D1F5826002D2F7ACF022AF
:00000001FF
