:100067001204DA90079FE493FEA3E493FFC007C04E
:10007700068E828F83120006D006D007900779E498
:1000870093FEA3E493FFC007C0068E828F831200FE
:1000970006D006D0079007A3E493FEA3E493FFC01E
:1000A70007C0068E828F83120006D006D007221261
:1000B70006AC0200BCAD82AE83AFF09007A1E4931B
:1000C700FBA3E493FCC007C006C005C004C003122D
:1000D70000DB800BC003C0048D828E838FF022D09B
:1000E70003D004D005D006D00790077BE493FBA389
:1000F700E493FCC007C006C005C004C00312010991
:10010700800BC003C0048D828E838FF022D003D072
:1001170004D005D006D0079007A5E493FBA3E4938A
:10012700FCC004C003120131800BC003C0048D82E0
:100137008E838FF022D003D00422C2A72220A702E9
:10014700D2A72210A7012222AD82AE83AFF07C0096
:10015700BC0C00400122EC75F002A42DFAEE35F03C
:10016700F98F038A8289838BF0120723FAA3120778
:1001770023FBBA0720BB001D758237C007C006C026
:1001870005C0041204F0B286120144D004D005D091
:1001970006D0078021BA081EBB001B758238C0072E
:1001A700C006C005C0041204F0B28712014AD00489
:0A01B700D005D006D0070C02015756
:0407790041014F01EA
:03000000020008F3
:0300640002000394
:030003000201E512
:1001C100AE82AF83EE4F601B7C467D00EC24FFFACC
:1001D100ED34FFFB8A048B05EA4B70F01EBEFF0174
:1001E1001F80E1229001F41201C11200671200B6D2
:1001F10090077DE493FE740193FF8E828F83120139
:03020100C180EACF
:02077D00320048
:030061007508001F
:10020400900781E49324FF92A5900784E49324FF4C
:1002140092A022E582FFB50825EF75F006A424819B
:10022400FD740735F0FE8D828E83E49324FF92A53E
:100234008D828E83A3A3A3E49324FF92A022EF755F
:10024400F006A42481FE740735F0FF8E828F83E4C8
:100254009324FF92A58E828F83A3E49324FF92A319
:100264008E828F83A3A3E49324FF92A48E828F8330
:10027400A3A3A3E49324FF92A08E828F83A3A3A3BA
:10028400A3E49324FF92A18E828F83A3A3A3A3A3A9
:10029400E49324FF92A222758200020217AD82AE7B
:1002A40083AFF07C00BC0C00400122EC75F002A48A
:1002B4002DFAEE35F0F98F038A8289838BF01207C9
:1002C40023FAA3120723FB30E703020456C3740C7A
:1002D4009A74808BF063F08095F05003020456EA20
:1002E400240A83F582EA241183F583E473560B40D0
:1002F40075AA56565656DEFE1B3B0403030303043D
:1003040004040403030404758231C007C006C00555
:10031400C0041204F0B28075820112021790077FA4
:10032400E493FA740193FB8A828B831201C1120253
:1003340004D004D005D006D007020456758232C01A
:1003440007C006C005C0041204F0B281758202120F
:10035400021790077FE493FA740193FB8A828B83DC
:100364001201C1120204D004D005D006D007020441
:1003740056758233C007C006C005C0041204F0B22B
:100384008275820312021790077FE493FA74019333
:10039400FB8A828B831201C1120204D004D005D0DF
:1003A40006D007020456758234C007C006C005C0D3
:1003B400041204F0B28375820412021790077FE4DA
:1003C40093FA740193FB8A828B831201C112020493
:1003D400D004D005D006D0078078758239C007C014
:1003E40006C005C0041204F0B2807582011202171F
:1003F400D004D005D006D0078058758241C007C00C
:1004040006C005C0041204F0B281120204D004D064
:1004140005D006D007803B758242C007C006C005E0
:10042400C0041204F0B282758202120217D004D002
:1004340005D006D007801B758243C007C006C005DF
:10044400C0041204F0B283120204D004D005D00612
:06045400D0070C0202A912
:10077F00F401000000000000010100010100010070
:10078F000101000100000001010001010000000053
:04079F009B02A10216
:10045A00C2A62220A602D2A62210A6012222AD827C
:10046A00AE83AFF07C00BC0C00400122EC75F002B8
:10047A00A42DFAEE35F0F98F038A8289838BF01264
:10048A000723FAA3120723FBBA0520BB001D7582B6
:10049A0035C007C006C005C0041204F0B2841204B5
:1004AA005DD004D005D006D0078021BA061EBB0055
:1004BA001B758236C007C006C005C0041204F0B21C
:1004CA0085120463D004D005D006D0070C0204704C
:0407A3005A04680488
:1004DA00758920758DFD758BFDD28ED29CC29FD2F7
:1004EA009ED2AFD2AC22AF82C2ACC2998F99109978
:1004FA000280FBD2AC2275820D1204F075820A02C8
:10050A0004F0AF82C0071205007582301204F0753C
:10051A0082781204F0D0077E00752B108E2C8F8201
:10052A008E8312073F752B10752C0012073FAE827F
:10053A00AF83C3EE940AEF64809480500974302E1E
:10054A00FCE43FFD800774372EFCE43FFD8C8212E9
:10055A0004F07582201204F07582201204F002055C
:10056A00007F00BF09005010EF2409F98782C007F5
:10057A0012050CD0070F80EB020500AE82AF837C18
:10058A00007D00C3EC9EED9F5008000CBC00F40DEA
:10059A0080F122AF827E017D007C00EF30E004D240
:1005AA00958002C295EFC313FF900002C007C006F0
:1005BA00C005C004120585C29790000A120585D0AD
:1005CA0004D005D006D007309403EE2DFD8E03EB40
:1005DA002BFED297900003C007C006C005C00412C4
:1005EA000585D004D005D006D0070CEC24F850AB12
:1005FA00D2958D8222E4F512F513F514F515F51648
:10060A00F517F518F519F51AF51BF51CF51DF51E64
:10061A00F51FF520F521F522F523F524F525F52614
:10062A00F527F528F529F52A74F4252A406DE52AD7
:10063A0075F006A4FDAEF024B0FBEE3407FC8B8205
:10064A008C83E493FAA3E493EA2409F987078B825B
:10065A008C83A3A3E493FBA3E493FC7A00EFB50392
:10066A0036EAB50432E52A252A2412F9ED24B0FD2A
:10067A00EE3407FE74042DFDE43EFE8D828E83E483
:10068A0093FCA3E493FFA70409A707198D828E831D
:10069A00E493F58212050C052A808D90001275F0FC
:1006AA004022C2967F00BF0900501CEF2409F9EFCF
:1006BA009007A793F582C007C00112059DE582D075
:0C06CA0001D007F70F80DFD2960205FF79
:1007A7000142000000000000000300EF0001000309
:1007B70000BF00020003007F0003000300DF000406
:1007C700000400EF0005000400BF00060004007FDE
:1007D7000007000400DF0008000400FB0009000414
:1007E70000FE000A000400F7000B000400FD000CE7
:0107F7000001
:06003700E478FFF6D8FD9D
:100015007900E94400601B7A009007F8780175A023
:1000250000E493F2A308B8000205A0D9F4DAF2754A
:02003500A0FF2A
:1006D600E52B452C60467A01E52B25E0F52BE52C2C
:1006E600334012F52CE582952BE583952C40030AC1
:1006F60080E6C3E52C13F52CE52B13F52BC3E58219
:10070600952BF5F0E583952C4005F58385F082C39E
:0D071600E52C13F52CE52B13F52BDAE12271
:10003D007800E84400600A790175A000E4F309D85E
:10004D00FC7800E84400600C7900900001E4F0A316
:04005D00D8FCD9FAF8
:0F000600E47375812C120775E582600302000315
:1007230020F71430F6148883A88220F507E6A883FF
:1007330075830022E280F7E49322E022C2D5E583A9
:1007430030E70DD2D5E4C39582F582E49583F58332
:10075300E52C30E70BE4C3952BF52BE4952CF52C16
:100763001206D630D50BE4C39582F582E49583F562
:06077300832275820022C2
:00000001FF
